{
  "contractName": "CCNFT",
  "abi": [
    {
      "inputs": [
        {
          "internalType": "string",
          "name": "_name",
          "type": "string"
        },
        {
          "internalType": "string",
          "name": "_symbol",
          "type": "string"
        }
      ],
      "stateMutability": "nonpayable",
      "type": "constructor"
    },
    {
      "anonymous": false,
      "inputs": [
        {
          "indexed": true,
          "internalType": "address",
          "name": "owner",
          "type": "address"
        },
        {
          "indexed": true,
          "internalType": "address",
          "name": "approved",
          "type": "address"
        },
        {
          "indexed": true,
          "internalType": "uint256",
          "name": "tokenId",
          "type": "uint256"
        }
      ],
      "name": "Approval",
      "type": "event"
    },
    {
      "anonymous": false,
      "inputs": [
        {
          "indexed": true,
          "internalType": "address",
          "name": "owner",
          "type": "address"
        },
        {
          "indexed": true,
          "internalType": "address",
          "name": "operator",
          "type": "address"
        },
        {
          "indexed": false,
          "internalType": "bool",
          "name": "approved",
          "type": "bool"
        }
      ],
      "name": "ApprovalForAll",
      "type": "event"
    },
    {
      "anonymous": false,
      "inputs": [
        {
          "indexed": true,
          "internalType": "address",
          "name": "from",
          "type": "address"
        },
        {
          "indexed": true,
          "internalType": "address",
          "name": "to",
          "type": "address"
        },
        {
          "indexed": true,
          "internalType": "uint256",
          "name": "tokenId",
          "type": "uint256"
        }
      ],
      "name": "Transfer",
      "type": "event"
    },
    {
      "inputs": [
        {
          "internalType": "address",
          "name": "to",
          "type": "address"
        },
        {
          "internalType": "uint256",
          "name": "tokenId",
          "type": "uint256"
        }
      ],
      "name": "approve",
      "outputs": [],
      "stateMutability": "nonpayable",
      "type": "function"
    },
    {
      "inputs": [
        {
          "internalType": "address",
          "name": "owner",
          "type": "address"
        }
      ],
      "name": "balanceOf",
      "outputs": [
        {
          "internalType": "uint256",
          "name": "",
          "type": "uint256"
        }
      ],
      "stateMutability": "view",
      "type": "function",
      "constant": true
    },
    {
      "inputs": [],
      "name": "baseURI",
      "outputs": [
        {
          "internalType": "string",
          "name": "",
          "type": "string"
        }
      ],
      "stateMutability": "view",
      "type": "function",
      "constant": true
    },
    {
      "inputs": [],
      "name": "coinsForSaleCount",
      "outputs": [
        {
          "internalType": "uint256",
          "name": "",
          "type": "uint256"
        }
      ],
      "stateMutability": "view",
      "type": "function",
      "constant": true
    },
    {
      "inputs": [
        {
          "internalType": "uint256",
          "name": "tokenId",
          "type": "uint256"
        }
      ],
      "name": "getApproved",
      "outputs": [
        {
          "internalType": "address",
          "name": "",
          "type": "address"
        }
      ],
      "stateMutability": "view",
      "type": "function",
      "constant": true
    },
    {
      "inputs": [
        {
          "internalType": "uint256",
          "name": "",
          "type": "uint256"
        }
      ],
      "name": "getCoinsInfobyID",
      "outputs": [
        {
          "internalType": "uint256",
          "name": "id",
          "type": "uint256"
        },
        {
          "internalType": "uint256",
          "name": "value",
          "type": "uint256"
        },
        {
          "internalType": "string",
          "name": "date",
          "type": "string"
        },
        {
          "internalType": "string",
          "name": "ownerName",
          "type": "string"
        },
        {
          "internalType": "enum CCNFT.SoldStatus",
          "name": "status",
          "type": "uint8"
        },
        {
          "internalType": "address payable",
          "name": "owner",
          "type": "address"
        }
      ],
      "stateMutability": "view",
      "type": "function",
      "constant": true
    },
    {
      "inputs": [
        {
          "internalType": "address",
          "name": "owner",
          "type": "address"
        },
        {
          "internalType": "address",
          "name": "operator",
          "type": "address"
        }
      ],
      "name": "isApprovedForAll",
      "outputs": [
        {
          "internalType": "bool",
          "name": "",
          "type": "bool"
        }
      ],
      "stateMutability": "view",
      "type": "function",
      "constant": true
    },
    {
      "inputs": [],
      "name": "name",
      "outputs": [
        {
          "internalType": "string",
          "name": "",
          "type": "string"
        }
      ],
      "stateMutability": "view",
      "type": "function",
      "constant": true
    },
    {
      "inputs": [
        {
          "internalType": "uint256",
          "name": "tokenId",
          "type": "uint256"
        }
      ],
      "name": "ownerOf",
      "outputs": [
        {
          "internalType": "address",
          "name": "",
          "type": "address"
        }
      ],
      "stateMutability": "view",
      "type": "function",
      "constant": true
    },
    {
      "inputs": [
        {
          "internalType": "address",
          "name": "from",
          "type": "address"
        },
        {
          "internalType": "address",
          "name": "to",
          "type": "address"
        },
        {
          "internalType": "uint256",
          "name": "tokenId",
          "type": "uint256"
        }
      ],
      "name": "safeTransferFrom",
      "outputs": [],
      "stateMutability": "nonpayable",
      "type": "function"
    },
    {
      "inputs": [
        {
          "internalType": "address",
          "name": "from",
          "type": "address"
        },
        {
          "internalType": "address",
          "name": "to",
          "type": "address"
        },
        {
          "internalType": "uint256",
          "name": "tokenId",
          "type": "uint256"
        },
        {
          "internalType": "bytes",
          "name": "_data",
          "type": "bytes"
        }
      ],
      "name": "safeTransferFrom",
      "outputs": [],
      "stateMutability": "nonpayable",
      "type": "function"
    },
    {
      "inputs": [
        {
          "internalType": "address",
          "name": "operator",
          "type": "address"
        },
        {
          "internalType": "bool",
          "name": "approved",
          "type": "bool"
        }
      ],
      "name": "setApprovalForAll",
      "outputs": [],
      "stateMutability": "nonpayable",
      "type": "function"
    },
    {
      "inputs": [
        {
          "internalType": "bytes4",
          "name": "interfaceId",
          "type": "bytes4"
        }
      ],
      "name": "supportsInterface",
      "outputs": [
        {
          "internalType": "bool",
          "name": "",
          "type": "bool"
        }
      ],
      "stateMutability": "view",
      "type": "function",
      "constant": true
    },
    {
      "inputs": [],
      "name": "symbol",
      "outputs": [
        {
          "internalType": "string",
          "name": "",
          "type": "string"
        }
      ],
      "stateMutability": "view",
      "type": "function",
      "constant": true
    },
    {
      "inputs": [
        {
          "internalType": "uint256",
          "name": "index",
          "type": "uint256"
        }
      ],
      "name": "tokenByIndex",
      "outputs": [
        {
          "internalType": "uint256",
          "name": "",
          "type": "uint256"
        }
      ],
      "stateMutability": "view",
      "type": "function",
      "constant": true
    },
    {
      "inputs": [
        {
          "internalType": "address",
          "name": "owner",
          "type": "address"
        },
        {
          "internalType": "uint256",
          "name": "index",
          "type": "uint256"
        }
      ],
      "name": "tokenOfOwnerByIndex",
      "outputs": [
        {
          "internalType": "uint256",
          "name": "",
          "type": "uint256"
        }
      ],
      "stateMutability": "view",
      "type": "function",
      "constant": true
    },
    {
      "inputs": [
        {
          "internalType": "uint256",
          "name": "tokenId",
          "type": "uint256"
        }
      ],
      "name": "tokenURI",
      "outputs": [
        {
          "internalType": "string",
          "name": "",
          "type": "string"
        }
      ],
      "stateMutability": "view",
      "type": "function",
      "constant": true
    },
    {
      "inputs": [],
      "name": "totalSupply",
      "outputs": [
        {
          "internalType": "uint256",
          "name": "",
          "type": "uint256"
        }
      ],
      "stateMutability": "view",
      "type": "function",
      "constant": true
    },
    {
      "inputs": [
        {
          "internalType": "address",
          "name": "from",
          "type": "address"
        },
        {
          "internalType": "address",
          "name": "to",
          "type": "address"
        },
        {
          "internalType": "uint256",
          "name": "tokenId",
          "type": "uint256"
        }
      ],
      "name": "transferFrom",
      "outputs": [],
      "stateMutability": "nonpayable",
      "type": "function"
    },
    {
      "inputs": [
        {
          "internalType": "string",
          "name": "_date",
          "type": "string"
        },
        {
          "internalType": "string",
          "name": "_ownerName",
          "type": "string"
        },
        {
          "internalType": "uint256",
          "name": "_value",
          "type": "uint256"
        }
      ],
      "name": "CreateCoins",
      "outputs": [],
      "stateMutability": "nonpayable",
      "type": "function"
    },
    {
      "inputs": [
        {
          "internalType": "uint256",
          "name": "_tokenId",
          "type": "uint256"
        }
      ],
      "name": "listCoinForSale",
      "outputs": [],
      "stateMutability": "payable",
      "type": "function",
      "payable": true
    },
    {
      "inputs": [
        {
          "internalType": "uint256",
          "name": "_tokenId",
          "type": "uint256"
        }
      ],
      "name": "buyCoin",
      "outputs": [],
      "stateMutability": "payable",
      "type": "function",
      "payable": true
    }
  ],
  "bytecode": "0x60806040523480156200001157600080fd5b5060405162003cd738038062003cd7833981810160405260408110156200003757600080fd5b81019080805160405193929190846401000000008211156200005857600080fd5b838201915060208201858111156200006f57600080fd5b82518660018202830111640100000000821117156200008d57600080fd5b8083526020830192505050908051906020019080838360005b83811015620000c3578082015181840152602081019050620000a6565b50505050905090810190601f168015620000f15780820380516001836020036101000a031916815260200191505b50604052602001805160405193929190846401000000008211156200011557600080fd5b838201915060208201858111156200012c57600080fd5b82518660018202830111640100000000821117156200014a57600080fd5b8083526020830192505050908051906020019080838360005b838110156200018057808201518184015260208101905062000163565b50505050905090810190601f168015620001ae5780820380516001836020036101000a031916815260200191505b506040525050508181620001cf6301ffc9a760e01b6200025360201b60201c565b8160069080519060200190620001e79291906200035c565b508060079080519060200190620002009291906200035c565b50620002196380ac58cd60e01b6200025360201b60201c565b62000231635b5e139f60e01b6200025360201b60201c565b6200024963780e9d6360e01b6200025360201b60201c565b5050505062000412565b63ffffffff60e01b817bffffffffffffffffffffffffffffffffffffffffffffffffffffffff19161415620002f0576040517f08c379a000000000000000000000000000000000000000000000000000000000815260040180806020018281038252601c8152602001807f4552433136353a20696e76616c696420696e746572666163652069640000000081525060200191505060405180910390fd5b6001600080837bffffffffffffffffffffffffffffffffffffffffffffffffffffffff19167bffffffffffffffffffffffffffffffffffffffffffffffffffffffff1916815260200190815260200160002060006101000a81548160ff02191690831515021790555050565b828054600181600116156101000203166002900490600052602060002090601f016020900481019282620003945760008555620003e0565b82601f10620003af57805160ff1916838001178555620003e0565b82800160010185558215620003e0579182015b82811115620003df578251825591602001919060010190620003c2565b5b509050620003ef9190620003f3565b5090565b5b808211156200040e576000816000905550600101620003f4565b5090565b6138b580620004226000396000f3fe6080604052600436106101345760003560e01c80636c0360eb116100ab578063a22cb4651161006f578063a22cb46514610878578063a8c39455146108d5578063b88d4fde14610903578063b972074e14610a15578063c87b56dd14610b7e578063e985e9c514610c3257610134565b80636c0360eb1461069a57806370a082311461072a578063877925741461078f57806395d89b41146107bd5780639f4787151461084d57610134565b806318160ddd116100fd57806318160ddd1461045657806323b872dd146104815780632f745c59146104fc57806342842e0e1461056b5780634f6ccce7146105e65780636352211e1461063557610134565b806288dbcb1461013957806301ffc9a71461029657806306fdde0314610306578063081812fc14610396578063095ea7b3146103fb575b600080fd5b34801561014557600080fd5b506101726004803603602081101561015c57600080fd5b8101908080359060200190929190505050610cb9565b60405180878152602001868152602001806020018060200185600281111561019657fe5b81526020018473ffffffffffffffffffffffffffffffffffffffff168152602001838103835287818151815260200191508051906020019080838360005b838110156101ef5780820151818401526020810190506101d4565b50505050905090810190601f16801561021c5780820380516001836020036101000a031916815260200191505b50838103825286818151815260200191508051906020019080838360005b8381101561025557808201518184015260208101905061023a565b50505050905090810190601f1680156102825780820380516001836020036101000a031916815260200191505b509850505050505050505060405180910390f35b3480156102a257600080fd5b506102ee600480360360208110156102b957600080fd5b8101908080357bffffffffffffffffffffffffffffffffffffffffffffffffffffffff19169060200190929190505050610e62565b60405180821515815260200191505060405180910390f35b34801561031257600080fd5b5061031b610ec9565b6040518080602001828103825283818151815260200191508051906020019080838360005b8381101561035b578082015181840152602081019050610340565b50505050905090810190601f1680156103885780820380516001836020036101000a031916815260200191505b509250505060405180910390f35b3480156103a257600080fd5b506103cf600480360360208110156103b957600080fd5b8101908080359060200190929190505050610f6b565b604051808273ffffffffffffffffffffffffffffffffffffffff16815260200191505060405180910390f35b34801561040757600080fd5b506104546004803603604081101561041e57600080fd5b81019080803573ffffffffffffffffffffffffffffffffffffffff16906020019092919080359060200190929190505050611006565b005b34801561046257600080fd5b5061046b61114a565b6040518082815260200191505060405180910390f35b34801561048d57600080fd5b506104fa600480360360608110156104a457600080fd5b81019080803573ffffffffffffffffffffffffffffffffffffffff169060200190929190803573ffffffffffffffffffffffffffffffffffffffff1690602001909291908035906020019092919050505061115b565b005b34801561050857600080fd5b506105556004803603604081101561051f57600080fd5b81019080803573ffffffffffffffffffffffffffffffffffffffff169060200190929190803590602001909291905050506111d1565b6040518082815260200191505060405180910390f35b34801561057757600080fd5b506105e46004803603606081101561058e57600080fd5b81019080803573ffffffffffffffffffffffffffffffffffffffff169060200190929190803573ffffffffffffffffffffffffffffffffffffffff1690602001909291908035906020019092919050505061122c565b005b3480156105f257600080fd5b5061061f6004803603602081101561060957600080fd5b810190808035906020019092919050505061124c565b6040518082815260200191505060405180910390f35b34801561064157600080fd5b5061066e6004803603602081101561065857600080fd5b810190808035906020019092919050505061126f565b604051808273ffffffffffffffffffffffffffffffffffffffff16815260200191505060405180910390f35b3480156106a657600080fd5b506106af6112a6565b6040518080602001828103825283818151815260200191508051906020019080838360005b838110156106ef5780820151818401526020810190506106d4565b50505050905090810190601f16801561071c5780820380516001836020036101000a031916815260200191505b509250505060405180910390f35b34801561073657600080fd5b506107796004803603602081101561074d57600080fd5b81019080803573ffffffffffffffffffffffffffffffffffffffff169060200190929190505050611348565b6040518082815260200191505060405180910390f35b6107bb600480360360208110156107a557600080fd5b810190808035906020019092919050505061141d565b005b3480156107c957600080fd5b506107d2611862565b6040518080602001828103825283818151815260200191508051906020019080838360005b838110156108125780820151818401526020810190506107f7565b50505050905090810190601f16801561083f5780820380516001836020036101000a031916815260200191505b509250505060405180910390f35b34801561085957600080fd5b50610862611904565b6040518082815260200191505060405180910390f35b34801561088457600080fd5b506108d36004803603604081101561089b57600080fd5b81019080803573ffffffffffffffffffffffffffffffffffffffff16906020019092919080351515906020019092919050505061190a565b005b610901600480360360208110156108eb57600080fd5b8101908080359060200190929190505050611ac0565b005b34801561090f57600080fd5b50610a136004803603608081101561092657600080fd5b81019080803573ffffffffffffffffffffffffffffffffffffffff169060200190929190803573ffffffffffffffffffffffffffffffffffffffff169060200190929190803590602001909291908035906020019064010000000081111561098d57600080fd5b82018360208201111561099f57600080fd5b803590602001918460018302840111640100000000831117156109c157600080fd5b91908080601f016020809104026020016040519081016040528093929190818152602001838380828437600081840152601f19601f820116905080830192505050505050509192919290505050611ba3565b005b348015610a2157600080fd5b50610b7c60048036036060811015610a3857600080fd5b8101908080359060200190640100000000811115610a5557600080fd5b820183602082011115610a6757600080fd5b80359060200191846001830284011164010000000083111715610a8957600080fd5b91908080601f016020809104026020016040519081016040528093929190818152602001838380828437600081840152601f19601f82011690508083019250505050505050919291929080359060200190640100000000811115610aec57600080fd5b820183602082011115610afe57600080fd5b80359060200191846001830284011164010000000083111715610b2057600080fd5b91908080601f016020809104026020016040519081016040528093929190818152602001838380828437600081840152601f19601f82011690508083019250505050505050919291929080359060200190929190505050611c1b565b005b348015610b8a57600080fd5b50610bb760048036036020811015610ba157600080fd5b8101908080359060200190929190505050611f0d565b6040518080602001828103825283818151815260200191508051906020019080838360005b83811015610bf7578082015181840152602081019050610bdc565b50505050905090810190601f168015610c245780820380516001836020036101000a031916815260200191505b509250505060405180910390f35b348015610c3e57600080fd5b50610ca160048036036040811015610c5557600080fd5b81019080803573ffffffffffffffffffffffffffffffffffffffff169060200190929190803573ffffffffffffffffffffffffffffffffffffffff1690602001909291905050506121de565b60405180821515815260200191505060405180910390f35b600c8181548110610cc957600080fd5b9060005260206000209060050201600091509050806000015490806001015490806002018054600181600116156101000203166002900480601f016020809104026020016040519081016040528092919081815260200182805460018160011615610100020316600290048015610d815780601f10610d5657610100808354040283529160200191610d81565b820191906000526020600020905b815481529060010190602001808311610d6457829003601f168201915b505050505090806003018054600181600116156101000203166002900480601f016020809104026020016040519081016040528092919081815260200182805460018160011615610100020316600290048015610e1f5780601f10610df457610100808354040283529160200191610e1f565b820191906000526020600020905b815481529060010190602001808311610e0257829003601f168201915b5050505050908060040160009054906101000a900460ff16908060040160019054906101000a900473ffffffffffffffffffffffffffffffffffffffff16905086565b6000806000837bffffffffffffffffffffffffffffffffffffffffffffffffffffffff19167bffffffffffffffffffffffffffffffffffffffffffffffffffffffff1916815260200190815260200160002060009054906101000a900460ff169050919050565b606060068054600181600116156101000203166002900480601f016020809104026020016040519081016040528092919081815260200182805460018160011615610100020316600290048015610f615780601f10610f3657610100808354040283529160200191610f61565b820191906000526020600020905b815481529060010190602001808311610f4457829003601f168201915b5050505050905090565b6000610f7682612272565b610fcb576040517f08c379a000000000000000000000000000000000000000000000000000000000815260040180806020018281038252602c8152602001806137aa602c913960400191505060405180910390fd5b6004600083815260200190815260200160002060009054906101000a900473ffffffffffffffffffffffffffffffffffffffff169050919050565b60006110118261126f565b90508073ffffffffffffffffffffffffffffffffffffffff168373ffffffffffffffffffffffffffffffffffffffff161415611098576040517f08c379a000000000000000000000000000000000000000000000000000000000815260040180806020018281038252602181526020018061382e6021913960400191505060405180910390fd5b8073ffffffffffffffffffffffffffffffffffffffff166110b761228f565b73ffffffffffffffffffffffffffffffffffffffff1614806110e657506110e5816110e061228f565b6121de565b5b61113b576040517f08c379a00000000000000000000000000000000000000000000000000000000081526004018080602001828103825260388152602001806136fd6038913960400191505060405180910390fd5b6111458383612297565b505050565b60006111566002612350565b905090565b61116c61116661228f565b82612365565b6111c1576040517f08c379a000000000000000000000000000000000000000000000000000000000815260040180806020018281038252603181526020018061384f6031913960400191505060405180910390fd5b6111cc838383612459565b505050565b600061122482600160008673ffffffffffffffffffffffffffffffffffffffff1673ffffffffffffffffffffffffffffffffffffffff16815260200190815260200160002061269c90919063ffffffff16565b905092915050565b61124783838360405180602001604052806000815250611ba3565b505050565b6000806112638360026126b690919063ffffffff16565b50905080915050919050565b600061129f8260405180606001604052806029815260200161375f6029913960026126e29092919063ffffffff16565b9050919050565b606060098054600181600116156101000203166002900480601f01602080910402602001604051908101604052809291908181526020018280546001816001161561010002031660029004801561133e5780601f106113135761010080835404028352916020019161133e565b820191906000526020600020905b81548152906001019060200180831161132157829003601f168201915b5050505050905090565b60008073ffffffffffffffffffffffffffffffffffffffff168273ffffffffffffffffffffffffffffffffffffffff1614156113cf576040517f08c379a000000000000000000000000000000000000000000000000000000000815260040180806020018281038252602a815260200180613735602a913960400191505060405180910390fd5b611416600160008473ffffffffffffffffffffffffffffffffffffffff1673ffffffffffffffffffffffffffffffffffffffff168152602001908152602001600020612701565b9050919050565b61142681612272565b611498576040517f08c379a00000000000000000000000000000000000000000000000000000000081526004018080602001828103825260118152602001807f6e6f6e6578697374616e7420746f6b656e00000000000000000000000000000081525060200191505060405180910390fd5b60006114a382612716565b90506000600c82815481106114b457fe5b90600052602060002090600502016040518060c00160405290816000820154815260200160018201548152602001600282018054600181600116156101000203166002900480601f01602080910402602001604051908101604052809291908181526020018280546001816001161561010002031660029004801561157a5780601f1061154f5761010080835404028352916020019161157a565b820191906000526020600020905b81548152906001019060200180831161155d57829003601f168201915b50505050508152602001600382018054600181600116156101000203166002900480601f01602080910402602001604051908101604052809291908181526020018280546001816001161561010002031660029004801561161c5780601f106115f15761010080835404028352916020019161161c565b820191906000526020600020905b8154815290600101906020018083116115ff57829003601f168201915b505050505081526020016004820160009054906101000a900460ff16600281111561164357fe5b600281111561164e57fe5b81526020016004820160019054906101000a900473ffffffffffffffffffffffffffffffffffffffff1673ffffffffffffffffffffffffffffffffffffffff1673ffffffffffffffffffffffffffffffffffffffff1681525050905080602001513410156116bb57600080fd5b600073ffffffffffffffffffffffffffffffffffffffff163373ffffffffffffffffffffffffffffffffffffffff1614156116f557600080fd5b806020015134111561174f573373ffffffffffffffffffffffffffffffffffffffff166108fc826020015134039081150290604051600060405180830381858888f1935050505015801561174d573d6000803e3d6000fd5b505b8060a0015173ffffffffffffffffffffffffffffffffffffffff166108fc82602001519081150290604051600060405180830381858888f1935050505015801561179d573d6000803e3d6000fd5b506117ad8160a00151338561115b565b33600c83815481106117bb57fe5b906000526020600020906005020160040160016101000a81548173ffffffffffffffffffffffffffffffffffffffff021916908373ffffffffffffffffffffffffffffffffffffffff1602179055506001600c838154811061181957fe5b906000526020600020906005020160040160006101000a81548160ff0219169083600281111561184557fe5b0217905550600b6000815480929190600190039190505550505050565b606060078054600181600116156101000203166002900480601f0160208091040260200160405190810160405280929190818152602001828054600181600116156101000203166002900480156118fa5780601f106118cf576101008083540402835291602001916118fa565b820191906000526020600020905b8154815290600101906020018083116118dd57829003601f168201915b5050505050905090565b600b5481565b61191261228f565b73ffffffffffffffffffffffffffffffffffffffff168273ffffffffffffffffffffffffffffffffffffffff1614156119b3576040517f08c379a00000000000000000000000000000000000000000000000000000000081526004018080602001828103825260198152602001807f4552433732313a20617070726f766520746f2063616c6c65720000000000000081525060200191505060405180910390fd5b80600560006119c061228f565b73ffffffffffffffffffffffffffffffffffffffff1673ffffffffffffffffffffffffffffffffffffffff16815260200190815260200160002060008473ffffffffffffffffffffffffffffffffffffffff1673ffffffffffffffffffffffffffffffffffffffff16815260200190815260200160002060006101000a81548160ff0219169083151502179055508173ffffffffffffffffffffffffffffffffffffffff16611a6d61228f565b73ffffffffffffffffffffffffffffffffffffffff167f17307eab39ab6107e8899845ad3d59bd9653f200f220920489ca2b5937696c318360405180821515815260200191505060405180910390a35050565b600073ffffffffffffffffffffffffffffffffffffffff163373ffffffffffffffffffffffffffffffffffffffff161415611afa57600080fd5b6000611b058261126f565b90508073ffffffffffffffffffffffffffffffffffffffff163373ffffffffffffffffffffffffffffffffffffffff1614611b3f57600080fd5b6000611b4a83612716565b90506000600c8281548110611b5b57fe5b906000526020600020906005020160040160006101000a81548160ff02191690836002811115611b8757fe5b0217905550600b60008154809291906001019190505550505050565b611bb4611bae61228f565b83612365565b611c09576040517f08c379a000000000000000000000000000000000000000000000000000000000815260040180806020018281038252603181526020018061384f6031913960400191505060405180910390fd5b611c1584848484612733565b50505050565b6000835111611c92576040517f08c379a00000000000000000000000000000000000000000000000000000000081526004018080602001828103825260188152602001807f54686520646174652063616e6e6f7420626520656d707479000000000000000081525060200191505060405180910390fd5b6000825111611d09576040517f08c379a000000000000000000000000000000000000000000000000000000000815260040180806020018281038252601d8152602001807f546865206f776e65724e616d652063616e6e6f7420626520656d70747900000081525060200191505060405180910390fd5b60008111611d7f576040517f08c379a00000000000000000000000000000000000000000000000000000000081526004018080602001828103825260188152602001807f5468652076616c75652063616e6e6f74206265207a65726f000000000000000081525060200191505060405180910390fd5b60006040518060c0016040528060008152602001838152602001858152602001848152602001600280811115611db157fe5b81526020013373ffffffffffffffffffffffffffffffffffffffff168152509050600c81908060018154018082558091505060019003906000526020600020906005020160009091909190915060008201518160000155602082015181600101556040820151816002019080519060200190611e2e929190613587565b506060820151816003019080519060200190611e4b929190613587565b5060808201518160040160006101000a81548160ff02191690836002811115611e7057fe5b021790555060a08201518160040160016101000a81548173ffffffffffffffffffffffffffffffffffffffff021916908373ffffffffffffffffffffffffffffffffffffffff160217905550505060006001600c80549050039050611ed533826127a5565b6000611ee082612716565b905080600c8281548110611ef057fe5b906000526020600020906005020160000181905550505050505050565b6060611f1882612272565b611f6d576040517f08c379a000000000000000000000000000000000000000000000000000000000815260040180806020018281038252602f8152602001806137ff602f913960400191505060405180910390fd5b6000600860008481526020019081526020016000208054600181600116156101000203166002900480601f0160208091040260200160405190810160405280929190818152602001828054600181600116156101000203166002900480156120165780601f10611feb57610100808354040283529160200191612016565b820191906000526020600020905b815481529060010190602001808311611ff957829003601f168201915b5050505050905060006120276112a6565b905060008151141561203d5781925050506121d9565b60008251111561210e5780826040516020018083805190602001908083835b6020831061207f578051825260208201915060208101905060208303925061205c565b6001836020036101000a03801982511681845116808217855250505050505090500182805190602001908083835b602083106120d057805182526020820191506020810190506020830392506120ad565b6001836020036101000a03801982511681845116808217855250505050505090500192505050604051602081830303815290604052925050506121d9565b80612118856127c3565b6040516020018083805190602001908083835b6020831061214e578051825260208201915060208101905060208303925061212b565b6001836020036101000a03801982511681845116808217855250505050505090500182805190602001908083835b6020831061219f578051825260208201915060208101905060208303925061217c565b6001836020036101000a03801982511681845116808217855250505050505090500192505050604051602081830303815290604052925050505b919050565b6000600560008473ffffffffffffffffffffffffffffffffffffffff1673ffffffffffffffffffffffffffffffffffffffff16815260200190815260200160002060008373ffffffffffffffffffffffffffffffffffffffff1673ffffffffffffffffffffffffffffffffffffffff16815260200190815260200160002060009054906101000a900460ff16905092915050565b600061228882600261290a90919063ffffffff16565b9050919050565b600033905090565b816004600083815260200190815260200160002060006101000a81548173ffffffffffffffffffffffffffffffffffffffff021916908373ffffffffffffffffffffffffffffffffffffffff160217905550808273ffffffffffffffffffffffffffffffffffffffff1661230a8361126f565b73ffffffffffffffffffffffffffffffffffffffff167f8c5be1e5ebec7d5bd14f71427d1e84f3dd0314c0f7b2291e5b200ac8c7c3b92560405160405180910390a45050565b600061235e82600001612924565b9050919050565b600061237082612272565b6123c5576040517f08c379a000000000000000000000000000000000000000000000000000000000815260040180806020018281038252602c8152602001806136d1602c913960400191505060405180910390fd5b60006123d08361126f565b90508073ffffffffffffffffffffffffffffffffffffffff168473ffffffffffffffffffffffffffffffffffffffff16148061243f57508373ffffffffffffffffffffffffffffffffffffffff1661242784610f6b565b73ffffffffffffffffffffffffffffffffffffffff16145b80612450575061244f81856121de565b5b91505092915050565b8273ffffffffffffffffffffffffffffffffffffffff166124798261126f565b73ffffffffffffffffffffffffffffffffffffffff16146124e5576040517f08c379a00000000000000000000000000000000000000000000000000000000081526004018080602001828103825260298152602001806137d66029913960400191505060405180910390fd5b600073ffffffffffffffffffffffffffffffffffffffff168273ffffffffffffffffffffffffffffffffffffffff16141561256b576040517f08c379a00000000000000000000000000000000000000000000000000000000081526004018080602001828103825260248152602001806136876024913960400191505060405180910390fd5b612576838383612935565b612581600082612297565b6125d281600160008673ffffffffffffffffffffffffffffffffffffffff1673ffffffffffffffffffffffffffffffffffffffff16815260200190815260200160002061293a90919063ffffffff16565b5061262481600160008573ffffffffffffffffffffffffffffffffffffffff1673ffffffffffffffffffffffffffffffffffffffff16815260200190815260200160002061295490919063ffffffff16565b5061263b8183600261296e9092919063ffffffff16565b50808273ffffffffffffffffffffffffffffffffffffffff168473ffffffffffffffffffffffffffffffffffffffff167fddf252ad1be2c89b69c2b068fc378daa952ba7f163c4a11628f55a4df523b3ef60405160405180910390a4505050565b60006126ab83600001836129a3565b60001c905092915050565b6000806000806126c98660000186612a26565b915091508160001c8160001c9350935050509250929050565b60006126f5846000018460001b84612abf565b60001c90509392505050565b600061270f82600001612bb5565b9050919050565b6000600a6000838152602001908152602001600020549050919050565b61273e848484612459565b61274a84848484612bc6565b61279f576040517f08c379a00000000000000000000000000000000000000000000000000000000081526004018080602001828103825260328152602001806136556032913960400191505060405180910390fd5b50505050565b6127bf828260405180602001604052806000815250612ddf565b5050565b6060600082141561280b576040518060400160405280600181526020017f30000000000000000000000000000000000000000000000000000000000000008152509050612905565b600082905060005b60008214612835578080600101915050600a828161282d57fe5b049150612813565b60008167ffffffffffffffff8111801561284e57600080fd5b506040519080825280601f01601f1916602001820160405280156128815781602001600182028036833780820191505090505b50905060006001830390508593505b600084146128fd57600a84816128a257fe5b0660300160f81b828280600190039350815181106128bc57fe5b60200101907effffffffffffffffffffffffffffffffffffffffffffffffffffffffffffff1916908160001a905350600a84816128f557fe5b049350612890565b819450505050505b919050565b600061291c836000018360001b612e50565b905092915050565b600081600001805490509050919050565b505050565b600061294c836000018360001b612e73565b905092915050565b6000612966836000018360001b612f5b565b905092915050565b600061299a846000018460001b8473ffffffffffffffffffffffffffffffffffffffff1660001b612fcb565b90509392505050565b600081836000018054905011612a04576040517f08c379a00000000000000000000000000000000000000000000000000000000081526004018080602001828103825260228152602001806136336022913960400191505060405180910390fd5b826000018281548110612a1357fe5b9060005260206000200154905092915050565b60008082846000018054905011612a88576040517f08c379a00000000000000000000000000000000000000000000000000000000081526004018080602001828103825260228152602001806137886022913960400191505060405180910390fd5b6000846000018481548110612a9957fe5b906000526020600020906002020190508060000154816001015492509250509250929050565b60008084600101600085815260200190815260200160002054905060008114158390612b86576040517f08c379a00000000000000000000000000000000000000000000000000000000081526004018080602001828103825283818151815260200191508051906020019080838360005b83811015612b4b578082015181840152602081019050612b30565b50505050905090810190601f168015612b785780820380516001836020036101000a031916815260200191505b509250505060405180910390fd5b50846000016001820381548110612b9957fe5b9060005260206000209060020201600101549150509392505050565b600081600001805490509050919050565b6000612be78473ffffffffffffffffffffffffffffffffffffffff166130a7565b612bf45760019050612dd7565b6000612d5e63150b7a0260e01b612c0961228f565b888787604051602401808573ffffffffffffffffffffffffffffffffffffffff1681526020018473ffffffffffffffffffffffffffffffffffffffff16815260200183815260200180602001828103825283818151815260200191508051906020019080838360005b83811015612c8d578082015181840152602081019050612c72565b50505050905090810190601f168015612cba5780820380516001836020036101000a031916815260200191505b5095505050505050604051602081830303815290604052907bffffffffffffffffffffffffffffffffffffffffffffffffffffffff19166020820180517bffffffffffffffffffffffffffffffffffffffffffffffffffffffff8381831617835250505050604051806060016040528060328152602001613655603291398773ffffffffffffffffffffffffffffffffffffffff166130ba9092919063ffffffff16565b90506000818060200190516020811015612d7757600080fd5b8101908080519060200190929190505050905063150b7a0260e01b7bffffffffffffffffffffffffffffffffffffffffffffffffffffffff1916817bffffffffffffffffffffffffffffffffffffffffffffffffffffffff191614925050505b949350505050565b612de983836130d2565b612df66000848484612bc6565b612e4b576040517f08c379a00000000000000000000000000000000000000000000000000000000081526004018080602001828103825260328152602001806136556032913960400191505060405180910390fd5b505050565b600080836001016000848152602001908152602001600020541415905092915050565b60008083600101600084815260200190815260200160002054905060008114612f4f5760006001820390506000600186600001805490500390506000866000018281548110612ebe57fe5b9060005260206000200154905080876000018481548110612edb57fe5b9060005260206000200181905550600183018760010160008381526020019081526020016000208190555086600001805480612f1357fe5b60019003818190600052602060002001600090559055866001016000878152602001908152602001600020600090556001945050505050612f55565b60009150505b92915050565b6000612f6783836132f0565b612fc0578260000182908060018154018082558091505060019003906000526020600020016000909190919091505582600001805490508360010160008481526020019081526020016000208190555060019050612fc5565b600090505b92915050565b6000808460010160008581526020019081526020016000205490506000811415613072578460000160405180604001604052808681526020018581525090806001815401808255809150506001900390600052602060002090600202016000909190919091506000820151816000015560208201518160010155505084600001805490508560010160008681526020019081526020016000208190555060019150506130a0565b8285600001600183038154811061308557fe5b90600052602060002090600202016001018190555060009150505b9392505050565b600080823b905060008111915050919050565b60606130c98484600085613313565b90509392505050565b600073ffffffffffffffffffffffffffffffffffffffff168273ffffffffffffffffffffffffffffffffffffffff161415613175576040517f08c379a00000000000000000000000000000000000000000000000000000000081526004018080602001828103825260208152602001807f4552433732313a206d696e7420746f20746865207a65726f206164647265737381525060200191505060405180910390fd5b61317e81612272565b156131f1576040517f08c379a000000000000000000000000000000000000000000000000000000000815260040180806020018281038252601c8152602001807f4552433732313a20746f6b656e20616c7265616479206d696e7465640000000081525060200191505060405180910390fd5b6131fd60008383612935565b61324e81600160008573ffffffffffffffffffffffffffffffffffffffff1673ffffffffffffffffffffffffffffffffffffffff16815260200190815260200160002061295490919063ffffffff16565b506132658183600261296e9092919063ffffffff16565b50600060016132746002612350565b03905080600a600084815260200190815260200160002081905550818373ffffffffffffffffffffffffffffffffffffffff16600073ffffffffffffffffffffffffffffffffffffffff167fddf252ad1be2c89b69c2b068fc378daa952ba7f163c4a11628f55a4df523b3ef60405160405180910390a4505050565b600080836001016000848152602001908152602001600020541415905092915050565b60608247101561336e576040517f08c379a00000000000000000000000000000000000000000000000000000000081526004018080602001828103825260268152602001806136ab6026913960400191505060405180910390fd5b613377856130a7565b6133e9576040517f08c379a000000000000000000000000000000000000000000000000000000000815260040180806020018281038252601d8152602001807f416464726573733a2063616c6c20746f206e6f6e2d636f6e747261637400000081525060200191505060405180910390fd5b6000808673ffffffffffffffffffffffffffffffffffffffff1685876040518082805190602001908083835b602083106134385780518252602082019150602081019050602083039250613415565b6001836020036101000a03801982511681845116808217855250505050505090500191505060006040518083038185875af1925050503d806000811461349a576040519150601f19603f3d011682016040523d82523d6000602084013e61349f565b606091505b50915091506134af8282866134bb565b92505050949350505050565b606083156134cb57829050613580565b6000835111156134de5782518084602001fd5b816040517f08c379a00000000000000000000000000000000000000000000000000000000081526004018080602001828103825283818151815260200191508051906020019080838360005b8381101561354557808201518184015260208101905061352a565b50505050905090810190601f1680156135725780820380516001836020036101000a031916815260200191505b509250505060405180910390fd5b9392505050565b828054600181600116156101000203166002900490600052602060002090601f0160209004810192826135bd5760008555613604565b82601f106135d657805160ff1916838001178555613604565b82800160010185558215613604579182015b828111156136035782518255916020019190600101906135e8565b5b5090506136119190613615565b5090565b5b8082111561362e576000816000905550600101613616565b509056fe456e756d657261626c655365743a20696e646578206f7574206f6620626f756e64734552433732313a207472616e7366657220746f206e6f6e20455243373231526563656976657220696d706c656d656e7465724552433732313a207472616e7366657220746f20746865207a65726f2061646472657373416464726573733a20696e73756666696369656e742062616c616e636520666f722063616c6c4552433732313a206f70657261746f7220717565727920666f72206e6f6e6578697374656e7420746f6b656e4552433732313a20617070726f76652063616c6c6572206973206e6f74206f776e6572206e6f7220617070726f76656420666f7220616c6c4552433732313a2062616c616e636520717565727920666f7220746865207a65726f20616464726573734552433732313a206f776e657220717565727920666f72206e6f6e6578697374656e7420746f6b656e456e756d657261626c654d61703a20696e646578206f7574206f6620626f756e64734552433732313a20617070726f76656420717565727920666f72206e6f6e6578697374656e7420746f6b656e4552433732313a207472616e73666572206f6620746f6b656e2074686174206973206e6f74206f776e4552433732314d657461646174613a2055524920717565727920666f72206e6f6e6578697374656e7420746f6b656e4552433732313a20617070726f76616c20746f2063757272656e74206f776e65724552433732313a207472616e736665722063616c6c6572206973206e6f74206f776e6572206e6f7220617070726f766564a26469706673582212209ba719650b015e7188af0cf13b84915479cbd1fa574fc0854ac39f0db8b71a6864736f6c63430007060033",
  "immutableReferences": {},
  "source": "// SPDX-License-Identifier: MIT\r\n\r\npragma solidity ^0.7.1;\r\n\r\nimport \"./ERC721.sol\";\r\n\r\ncontract CCNFT is ERC721 {\r\n    \r\n    uint256 public coinsForSaleCount;\r\n    \r\n    //Each Coin-NFT will have the following data\r\n    struct Coin {\r\n        uint256 id;\r\n        uint256 value;\r\n        string date;\r\n        string ownerName;\r\n        SoldStatus status;\r\n        address payable owner;\r\n    }\r\n    \r\n    enum SoldStatus {FOR_SALE, SOLD, NOT_FOR_SALE}\r\n    \r\n    Coin[] public getCoinsInfobyID;\r\n    \r\n    constructor(string memory _name, string memory _symbol) ERC721(_name,_symbol) {\r\n        \r\n    }\r\n    \r\n    //Function to CreateCoins\r\n    function CreateCoins(string memory _date, string memory _ownerName, uint256 _value) public {\r\n        require(bytes(_date).length > 0, 'The date cannot be empty');\r\n        require(bytes(_ownerName).length > 0, 'The ownerName cannot be empty');\r\n        require(_value > 0 , 'The value cannot be zero');\r\n        \r\n        Coin memory _coin = Coin ({\r\n            id : 0,\r\n            value: _value,\r\n            date : _date,\r\n            ownerName : _ownerName,\r\n            status: SoldStatus.NOT_FOR_SALE, //Intial status will be NOT_FOR_SALE\r\n            owner : msg.sender\r\n        });\r\n        getCoinsInfobyID.push(_coin);\r\n        uint256 _tokenId = getCoinsInfobyID.length - 1;\r\n        _safeMint(msg.sender, _tokenId);\r\n        uint _index = getTokenIndexByID(_tokenId);\r\n        getCoinsInfobyID[_index].id = _index;\r\n        \r\n    }\r\n    \r\n    \r\n    //Function to List CharityCoins for Sale\r\n    function listCoinForSale(uint256 _tokenId) payable public {\r\n        require(msg.sender != address(0));\r\n        address _owner = ownerOf(_tokenId);\r\n        require(msg.sender == _owner);\r\n        uint _index = getTokenIndexByID(_tokenId);\r\n        getCoinsInfobyID[_index].status = SoldStatus.FOR_SALE;\r\n        coinsForSaleCount++;\r\n    }\r\n    \r\n    //Function to Buy Charity Coin\r\n    function buyCoin(uint256 _tokenId) payable public {\r\n        require(_exists(_tokenId),\"nonexistant token\");\r\n        uint _index = getTokenIndexByID(_tokenId);\r\n        Coin memory _coin = getCoinsInfobyID[_index];\r\n        require(msg.value >= _coin.value);\r\n        require(msg.sender != address(0));\r\n        \r\n        if (msg.value > _coin.value) {\r\n            msg.sender.transfer(msg.value - _coin.value);\r\n        }\r\n        _coin.owner.transfer(_coin.value);\r\n        transferFrom(_coin.owner, msg.sender, _tokenId);\r\n        getCoinsInfobyID[_index].owner = msg.sender;\r\n        getCoinsInfobyID[_index].status = SoldStatus.SOLD;\r\n        coinsForSaleCount--;\r\n    }\r\n}",
  "sourcePath": "C:/Users/Pradeep/Dropbox/Blockchain Development Course George Brown/Smart Contract Essentials/Final-Assignment-new/contracts/CC.sol",
  "compiler": {
    "name": "solc",
    "version": "0.7.6+commit.7338295f.Emscripten.clang"
  },
  "schemaVersion": "3.3.2",
  "updatedAt": "2021-01-31T21:59:41.716Z",
  "networkType": "ethereum",
  "devdoc": {
    "kind": "dev",
    "methods": {
      "approve(address,uint256)": {
        "details": "See {IERC721-approve}."
      },
      "balanceOf(address)": {
        "details": "See {IERC721-balanceOf}."
      },
      "baseURI()": {
        "details": "Returns the base URI set via {_setBaseURI}. This will be automatically added as a prefix in {tokenURI} to each token's URI, or to the token ID if no specific URI is set for that token ID."
      },
      "getApproved(uint256)": {
        "details": "See {IERC721-getApproved}."
      },
      "isApprovedForAll(address,address)": {
        "details": "See {IERC721-isApprovedForAll}."
      },
      "name()": {
        "details": "See {IERC721Metadata-name}."
      },
      "ownerOf(uint256)": {
        "details": "See {IERC721-ownerOf}."
      },
      "safeTransferFrom(address,address,uint256)": {
        "details": "See {IERC721-safeTransferFrom}."
      },
      "safeTransferFrom(address,address,uint256,bytes)": {
        "details": "See {IERC721-safeTransferFrom}."
      },
      "setApprovalForAll(address,bool)": {
        "details": "See {IERC721-setApprovalForAll}."
      },
      "supportsInterface(bytes4)": {
        "details": "See {IERC165-supportsInterface}. Time complexity O(1), guaranteed to always use less than 30 000 gas."
      },
      "symbol()": {
        "details": "See {IERC721Metadata-symbol}."
      },
      "tokenByIndex(uint256)": {
        "details": "See {IERC721Enumerable-tokenByIndex}."
      },
      "tokenOfOwnerByIndex(address,uint256)": {
        "details": "See {IERC721Enumerable-tokenOfOwnerByIndex}."
      },
      "tokenURI(uint256)": {
        "details": "See {IERC721Metadata-tokenURI}."
      },
      "totalSupply()": {
        "details": "See {IERC721Enumerable-totalSupply}."
      },
      "transferFrom(address,address,uint256)": {
        "details": "See {IERC721-transferFrom}."
      }
    },
    "version": 1
  },
  "userdoc": {
    "kind": "user",
    "methods": {},
    "version": 1
  }
}